{
  "_format": "hh-sol-artifact-1",
  "contractName": "MyEpicNFT",
  "sourceName": "contracts/MyEpicNFT.sol",
  "abi": [
    {
      "inputs": [],
      "stateMutability": "nonpayable",
      "type": "constructor"
    },
    {
      "anonymous": false,
      "inputs": [
        {
          "indexed": true,
          "internalType": "address",
          "name": "owner",
          "type": "address"
        },
        {
          "indexed": true,
          "internalType": "address",
          "name": "approved",
          "type": "address"
        },
        {
          "indexed": true,
          "internalType": "uint256",
          "name": "tokenId",
          "type": "uint256"
        }
      ],
      "name": "Approval",
      "type": "event"
    },
    {
      "anonymous": false,
      "inputs": [
        {
          "indexed": true,
          "internalType": "address",
          "name": "owner",
          "type": "address"
        },
        {
          "indexed": true,
          "internalType": "address",
          "name": "operator",
          "type": "address"
        },
        {
          "indexed": false,
          "internalType": "bool",
          "name": "approved",
          "type": "bool"
        }
      ],
      "name": "ApprovalForAll",
      "type": "event"
    },
    {
      "anonymous": false,
      "inputs": [
        {
          "indexed": false,
          "internalType": "address",
          "name": "sender",
          "type": "address"
        },
        {
          "indexed": false,
          "internalType": "uint256",
          "name": "tokenId",
          "type": "uint256"
        }
      ],
      "name": "NewEpicNFTMinted",
      "type": "event"
    },
    {
      "anonymous": false,
      "inputs": [
        {
          "indexed": true,
          "internalType": "address",
          "name": "from",
          "type": "address"
        },
        {
          "indexed": true,
          "internalType": "address",
          "name": "to",
          "type": "address"
        },
        {
          "indexed": true,
          "internalType": "uint256",
          "name": "tokenId",
          "type": "uint256"
        }
      ],
      "name": "Transfer",
      "type": "event"
    },
    {
      "inputs": [
        {
          "internalType": "address",
          "name": "to",
          "type": "address"
        },
        {
          "internalType": "uint256",
          "name": "tokenId",
          "type": "uint256"
        }
      ],
      "name": "approve",
      "outputs": [],
      "stateMutability": "nonpayable",
      "type": "function"
    },
    {
      "inputs": [
        {
          "internalType": "address",
          "name": "owner",
          "type": "address"
        }
      ],
      "name": "balanceOf",
      "outputs": [
        {
          "internalType": "uint256",
          "name": "",
          "type": "uint256"
        }
      ],
      "stateMutability": "view",
      "type": "function"
    },
    {
      "inputs": [
        {
          "internalType": "uint256",
          "name": "tokenId",
          "type": "uint256"
        }
      ],
      "name": "getApproved",
      "outputs": [
        {
          "internalType": "address",
          "name": "",
          "type": "address"
        }
      ],
      "stateMutability": "view",
      "type": "function"
    },
    {
      "inputs": [],
      "name": "getTotalNFTsMintedSoFar",
      "outputs": [
        {
          "internalType": "uint256",
          "name": "",
          "type": "uint256"
        }
      ],
      "stateMutability": "view",
      "type": "function"
    },
    {
      "inputs": [
        {
          "internalType": "address",
          "name": "owner",
          "type": "address"
        },
        {
          "internalType": "address",
          "name": "operator",
          "type": "address"
        }
      ],
      "name": "isApprovedForAll",
      "outputs": [
        {
          "internalType": "bool",
          "name": "",
          "type": "bool"
        }
      ],
      "stateMutability": "view",
      "type": "function"
    },
    {
      "inputs": [],
      "name": "makeAnEpicNFT",
      "outputs": [],
      "stateMutability": "nonpayable",
      "type": "function"
    },
    {
      "inputs": [],
      "name": "name",
      "outputs": [
        {
          "internalType": "string",
          "name": "",
          "type": "string"
        }
      ],
      "stateMutability": "view",
      "type": "function"
    },
    {
      "inputs": [
        {
          "internalType": "uint256",
          "name": "tokenId",
          "type": "uint256"
        }
      ],
      "name": "ownerOf",
      "outputs": [
        {
          "internalType": "address",
          "name": "",
          "type": "address"
        }
      ],
      "stateMutability": "view",
      "type": "function"
    },
    {
      "inputs": [
        {
          "internalType": "uint256",
          "name": "tokenId",
          "type": "uint256"
        }
      ],
      "name": "pickRandomColor",
      "outputs": [
        {
          "internalType": "string",
          "name": "",
          "type": "string"
        }
      ],
      "stateMutability": "view",
      "type": "function"
    },
    {
      "inputs": [
        {
          "internalType": "uint256",
          "name": "tokenId",
          "type": "uint256"
        }
      ],
      "name": "pickRandomFirstWord",
      "outputs": [
        {
          "internalType": "string",
          "name": "",
          "type": "string"
        }
      ],
      "stateMutability": "view",
      "type": "function"
    },
    {
      "inputs": [
        {
          "internalType": "uint256",
          "name": "tokenId",
          "type": "uint256"
        }
      ],
      "name": "pickRandomSecondWord",
      "outputs": [
        {
          "internalType": "string",
          "name": "",
          "type": "string"
        }
      ],
      "stateMutability": "view",
      "type": "function"
    },
    {
      "inputs": [
        {
          "internalType": "uint256",
          "name": "tokenId",
          "type": "uint256"
        }
      ],
      "name": "pickRandomThirdWord",
      "outputs": [
        {
          "internalType": "string",
          "name": "",
          "type": "string"
        }
      ],
      "stateMutability": "view",
      "type": "function"
    },
    {
      "inputs": [
        {
          "internalType": "address",
          "name": "from",
          "type": "address"
        },
        {
          "internalType": "address",
          "name": "to",
          "type": "address"
        },
        {
          "internalType": "uint256",
          "name": "tokenId",
          "type": "uint256"
        }
      ],
      "name": "safeTransferFrom",
      "outputs": [],
      "stateMutability": "nonpayable",
      "type": "function"
    },
    {
      "inputs": [
        {
          "internalType": "address",
          "name": "from",
          "type": "address"
        },
        {
          "internalType": "address",
          "name": "to",
          "type": "address"
        },
        {
          "internalType": "uint256",
          "name": "tokenId",
          "type": "uint256"
        },
        {
          "internalType": "bytes",
          "name": "_data",
          "type": "bytes"
        }
      ],
      "name": "safeTransferFrom",
      "outputs": [],
      "stateMutability": "nonpayable",
      "type": "function"
    },
    {
      "inputs": [
        {
          "internalType": "address",
          "name": "operator",
          "type": "address"
        },
        {
          "internalType": "bool",
          "name": "approved",
          "type": "bool"
        }
      ],
      "name": "setApprovalForAll",
      "outputs": [],
      "stateMutability": "nonpayable",
      "type": "function"
    },
    {
      "inputs": [
        {
          "internalType": "bytes4",
          "name": "interfaceId",
          "type": "bytes4"
        }
      ],
      "name": "supportsInterface",
      "outputs": [
        {
          "internalType": "bool",
          "name": "",
          "type": "bool"
        }
      ],
      "stateMutability": "view",
      "type": "function"
    },
    {
      "inputs": [],
      "name": "symbol",
      "outputs": [
        {
          "internalType": "string",
          "name": "",
          "type": "string"
        }
      ],
      "stateMutability": "view",
      "type": "function"
    },
    {
      "inputs": [
        {
          "internalType": "uint256",
          "name": "tokenId",
          "type": "uint256"
        }
      ],
      "name": "tokenURI",
      "outputs": [
        {
          "internalType": "string",
          "name": "",
          "type": "string"
        }
      ],
      "stateMutability": "view",
      "type": "function"
    },
    {
      "inputs": [
        {
          "internalType": "address",
          "name": "from",
          "type": "address"
        },
        {
          "internalType": "address",
          "name": "to",
          "type": "address"
        },
        {
          "internalType": "uint256",
          "name": "tokenId",
          "type": "uint256"
        }
      ],
      "name": "transferFrom",
      "outputs": [],
      "stateMutability": "nonpayable",
      "type": "function"
    }
  ],
  "bytecode": "0x60806040526040518060e0016040528060aa8152602001620048e660aa91396008908051906020019062000035929190620008e6565b50604051806060016040528060238152602001620048c3602391396009908051906020019062000067929190620008e6565b5060405180610120016040528060f68152602001620047cd60f69139600a90805190602001906200009a929190620008e6565b506040518060e001604052806040518060400160405280600b81526020017f436f6e63757272656e742000000000000000000000000000000000000000000081525081526020016040518060400160405280600981526020017f5363616c61626c6520000000000000000000000000000000000000000000000081525081526020016040518060400160405280600b81526020017f486973746f726963616c2000000000000000000000000000000000000000000081525081526020016040518060400160405280600981526020017f50726563696f757320000000000000000000000000000000000000000000000081525081526020016040518060400160405280600781526020017f536c65657079200000000000000000000000000000000000000000000000000081525081526020016040518060400160405280600581526020017f4c6f73742000000000000000000000000000000000000000000000000000000081525081526020016040518060400160405280600781526020017f537461626c652000000000000000000000000000000000000000000000000000815250815250600b9060076200025392919062000977565b506040518061012001604052806040518060400160405280600581526020017f4e6f64652000000000000000000000000000000000000000000000000000000081525081526020016040518060400160405280600881526020017f417263686976652000000000000000000000000000000000000000000000000081525081526020016040518060400160405280600581526020017f476574682000000000000000000000000000000000000000000000000000000081525081526020016040518060400160405280600581526020017f526174652000000000000000000000000000000000000000000000000000000081525081526020016040518060400160405280600981526020017f436170616369747920000000000000000000000000000000000000000000000081525081526020016040518060400160405280600881526020017f48616e646c65722000000000000000000000000000000000000000000000000081525081526020016040518060400160405280600b81526020017f446570656e64656e63792000000000000000000000000000000000000000000081525081526020016040518060400160405280600e81526020017f4f62736572766162696c6974792000000000000000000000000000000000000081525081526020016040518060400160405280600481526020017f5250432000000000000000000000000000000000000000000000000000000000815250815250600c90600962000483929190620009de565b506040518060e001604052806040518060400160405280600681526020017f46616e6f7574000000000000000000000000000000000000000000000000000081525081526020016040518060400160405280600781526020017f4d61696e6e65740000000000000000000000000000000000000000000000000081525081526020016040518060400160405280600681526020017f436c69656e74000000000000000000000000000000000000000000000000000081525081526020016040518060400160405280600581526020017f4c696d697400000000000000000000000000000000000000000000000000000081525081526020016040518060400160405280600681526020017f51756f72756d000000000000000000000000000000000000000000000000000081525081526020016040518060400160405280600681526020017f416c65727473000000000000000000000000000000000000000000000000000081525081526020016040518060400160405280600481526020017f53796e6300000000000000000000000000000000000000000000000000000000815250815250600d9060076200063c92919062000977565b506040518061010001604052806040518060400160405280600781526020017f233430643665640000000000000000000000000000000000000000000000000081525081526020016040518060400160405280600781526020017f233232386463370000000000000000000000000000000000000000000000000081525081526020016040518060400160405280600781526020017f233036373664310000000000000000000000000000000000000000000000000081525081526020016040518060400160405280600781526020017f233337363361640000000000000000000000000000000000000000000000000081525081526020016040518060400160405280600781526020017f233037333137380000000000000000000000000000000000000000000000000081525081526020016040518060400160405280600781526020017f233030306239650000000000000000000000000000000000000000000000000081525081526020016040518060400160405280600781526020017f233032313366300000000000000000000000000000000000000000000000000081525081526020016040518060400160405280600781526020017f2330326231663000000000000000000000000000000000000000000000000000815250815250600e9060086200083192919062000a45565b503480156200083f57600080fd5b506040518060400160405280601081526020017f426c6f636b636861696e20496e667261000000000000000000000000000000008152506040518060400160405280600a81526020017f424c4f434b494e465241000000000000000000000000000000000000000000008152508160009080519060200190620008c4929190620008e6565b508060019080519060200190620008dd929190620008e6565b50505062000b9e565b828054620008f49062000b39565b90600052602060002090601f01602090048101928262000918576000855562000964565b82601f106200093357805160ff191683800117855562000964565b8280016001018555821562000964579182015b828111156200096357825182559160200191906001019062000946565b5b50905062000973919062000aac565b5090565b828054828255906000526020600020908101928215620009cb579160200282015b82811115620009ca578251829080519060200190620009b9929190620008e6565b509160200191906001019062000998565b5b509050620009da919062000acb565b5090565b82805482825590600052602060002090810192821562000a32579160200282015b8281111562000a3157825182908051906020019062000a20929190620008e6565b5091602001919060010190620009ff565b5b50905062000a41919062000acb565b5090565b82805482825590600052602060002090810192821562000a99579160200282015b8281111562000a9857825182908051906020019062000a87929190620008e6565b509160200191906001019062000a66565b5b50905062000aa8919062000acb565b5090565b5b8082111562000ac757600081600090555060010162000aad565b5090565b5b8082111562000aef576000818162000ae5919062000af3565b5060010162000acc565b5090565b50805462000b019062000b39565b6000825580601f1062000b15575062000b36565b601f01602090049060005260206000209081019062000b35919062000aac565b5b50565b6000600282049050600182168062000b5257607f821691505b6020821081141562000b695762000b6862000b6f565b5b50919050565b7f4e487b7100000000000000000000000000000000000000000000000000000000600052602260045260246000fd5b613c1f8062000bae6000396000f3fe608060405234801561001057600080fd5b50600436106101215760003560e01c80636352211e116100ad578063b88d4fde11610071578063b88d4fde14610340578063c575757a1461035c578063c87b56dd1461038c578063de9d132f146103bc578063e985e9c5146103c657610121565b80636352211e1461027657806370a08231146102a657806395d89b41146102d6578063a22cb465146102f4578063b187301f1461031057610121565b8063095ea7b3116100f4578063095ea7b3146101c257806323b872dd146101de5780632de38d68146101fa57806342842e0e1461022a578063514dc8c61461024657610121565b806301ffc9a714610126578063060475901461015657806306fdde0314610174578063081812fc14610192575b600080fd5b610140600480360381019061013b91906126d4565b6103f6565b60405161014d919061346b565b60405180910390f35b61015e6104d8565b60405161016b9190613706565b60405180910390f35b61017c6104e9565b6040516101899190613486565b60405180910390f35b6101ac60048036038101906101a79190612726565b61057b565b6040516101b991906133db565b60405180910390f35b6101dc60048036038101906101d79190612698565b610600565b005b6101f860048036038101906101f39190612592565b610718565b005b610214600480360381019061020f9190612726565b610778565b6040516102219190613486565b60405180910390f35b610244600480360381019061023f9190612592565b61089a565b005b610260600480360381019061025b9190612726565b6108ba565b60405161026d9190613486565b60405180910390f35b610290600480360381019061028b9190612726565b6109dc565b60405161029d91906133db565b60405180910390f35b6102c060048036038101906102bb919061252d565b610a8e565b6040516102cd9190613706565b60405180910390f35b6102de610b46565b6040516102eb9190613486565b60405180910390f35b61030e6004803603810190610309919061265c565b610bd8565b005b61032a60048036038101906103259190612726565b610d59565b6040516103379190613486565b60405180910390f35b61035a600480360381019061035591906125e1565b610e7b565b005b61037660048036038101906103719190612726565b610edd565b6040516103839190613486565b60405180910390f35b6103a660048036038101906103a19190612726565b610fff565b6040516103b39190613486565b60405180910390f35b6103c4611151565b005b6103e060048036038101906103db9190612556565b6113ad565b6040516103ed919061346b565b60405180910390f35b60007f80ac58cd000000000000000000000000000000000000000000000000000000007bffffffffffffffffffffffffffffffffffffffffffffffffffffffff1916827bffffffffffffffffffffffffffffffffffffffffffffffffffffffff191614806104c157507f5b5e139f000000000000000000000000000000000000000000000000000000007bffffffffffffffffffffffffffffffffffffffffffffffffffffffff1916827bffffffffffffffffffffffffffffffffffffffffffffffffffffffff1916145b806104d157506104d082611441565b5b9050919050565b60006104e460076114ab565b905090565b6060600080546104f8906139a5565b80601f0160208091040260200160405190810160405280929190818152602001828054610524906139a5565b80156105715780601f1061054657610100808354040283529160200191610571565b820191906000526020600020905b81548152906001019060200180831161055457829003601f168201915b5050505050905090565b6000610586826114b9565b6105c5576040517f08c379a00000000000000000000000000000000000000000000000000000000081526004016105bc90613666565b60405180910390fd5b6004600083815260200190815260200160002060009054906101000a900473ffffffffffffffffffffffffffffffffffffffff169050919050565b600061060b826109dc565b90508073ffffffffffffffffffffffffffffffffffffffff168373ffffffffffffffffffffffffffffffffffffffff16141561067c576040517f08c379a0000000000000000000000000000000000000000000000000000000008152600401610673906136c6565b60405180910390fd5b8073ffffffffffffffffffffffffffffffffffffffff1661069b611525565b73ffffffffffffffffffffffffffffffffffffffff1614806106ca57506106c9816106c4611525565b6113ad565b5b610709576040517f08c379a0000000000000000000000000000000000000000000000000000000008152600401610700906135a6565b60405180910390fd5b610713838361152d565b505050565b610729610723611525565b826115e6565b610768576040517f08c379a000000000000000000000000000000000000000000000000000000000815260040161075f906136e6565b60405180910390fd5b6107738383836116c4565b505050565b606060006107b0444261078a86611920565b60405160200161079c93929190613331565b604051602081830303815290604052611acd565b9050600b80549050816107c39190613a2a565b9050600b81815481106107ff577f4e487b7100000000000000000000000000000000000000000000000000000000600052603260045260246000fd5b906000526020600020018054610814906139a5565b80601f0160208091040260200160405190810160405280929190818152602001828054610840906139a5565b801561088d5780601f106108625761010080835404028352916020019161088d565b820191906000526020600020905b81548152906001019060200180831161087057829003601f168201915b5050505050915050919050565b6108b583838360405180602001604052806000815250610e7b565b505050565b606060006108f244426108cc86611920565b6040516020016108de93929190613397565b604051602081830303815290604052611acd565b9050600e80549050816109059190613a2a565b9050600e8181548110610941577f4e487b7100000000000000000000000000000000000000000000000000000000600052603260045260246000fd5b906000526020600020018054610956906139a5565b80601f0160208091040260200160405190810160405280929190818152602001828054610982906139a5565b80156109cf5780601f106109a4576101008083540402835291602001916109cf565b820191906000526020600020905b8154815290600101906020018083116109b257829003601f168201915b5050505050915050919050565b6000806002600084815260200190815260200160002060009054906101000a900473ffffffffffffffffffffffffffffffffffffffff169050600073ffffffffffffffffffffffffffffffffffffffff168173ffffffffffffffffffffffffffffffffffffffff161415610a85576040517f08c379a0000000000000000000000000000000000000000000000000000000008152600401610a7c906135e6565b60405180910390fd5b80915050919050565b60008073ffffffffffffffffffffffffffffffffffffffff168273ffffffffffffffffffffffffffffffffffffffff161415610aff576040517f08c379a0000000000000000000000000000000000000000000000000000000008152600401610af6906135c6565b60405180910390fd5b600360008373ffffffffffffffffffffffffffffffffffffffff1673ffffffffffffffffffffffffffffffffffffffff168152602001908152602001600020549050919050565b606060018054610b55906139a5565b80601f0160208091040260200160405190810160405280929190818152602001828054610b81906139a5565b8015610bce5780601f10610ba357610100808354040283529160200191610bce565b820191906000526020600020905b815481529060010190602001808311610bb157829003601f168201915b5050505050905090565b610be0611525565b73ffffffffffffffffffffffffffffffffffffffff168273ffffffffffffffffffffffffffffffffffffffff161415610c4e576040517f08c379a0000000000000000000000000000000000000000000000000000000008152600401610c4590613566565b60405180910390fd5b8060056000610c5b611525565b73ffffffffffffffffffffffffffffffffffffffff1673ffffffffffffffffffffffffffffffffffffffff16815260200190815260200160002060008473ffffffffffffffffffffffffffffffffffffffff1673ffffffffffffffffffffffffffffffffffffffff16815260200190815260200160002060006101000a81548160ff0219169083151502179055508173ffffffffffffffffffffffffffffffffffffffff16610d08611525565b73ffffffffffffffffffffffffffffffffffffffff167f17307eab39ab6107e8899845ad3d59bd9653f200f220920489ca2b5937696c3183604051610d4d919061346b565b60405180910390a35050565b60606000610d914442610d6b86611920565b604051602001610d7d939291906132a8565b604051602081830303815290604052611acd565b9050600c8054905081610da49190613a2a565b9050600c8181548110610de0577f4e487b7100000000000000000000000000000000000000000000000000000000600052603260045260246000fd5b906000526020600020018054610df5906139a5565b80601f0160208091040260200160405190810160405280929190818152602001828054610e21906139a5565b8015610e6e5780601f10610e4357610100808354040283529160200191610e6e565b820191906000526020600020905b815481529060010190602001808311610e5157829003601f168201915b5050505050915050919050565b610e8c610e86611525565b836115e6565b610ecb576040517f08c379a0000000000000000000000000000000000000000000000000000000008152600401610ec2906136e6565b60405180910390fd5b610ed784848484611b00565b50505050565b60606000610f154442610eef86611920565b604051602001610f0193929190613264565b604051602081830303815290604052611acd565b9050600d8054905081610f289190613a2a565b9050600d8181548110610f64577f4e487b7100000000000000000000000000000000000000000000000000000000600052603260045260246000fd5b906000526020600020018054610f79906139a5565b80601f0160208091040260200160405190810160405280929190818152602001828054610fa5906139a5565b8015610ff25780601f10610fc757610100808354040283529160200191610ff2565b820191906000526020600020905b815481529060010190602001808311610fd557829003601f168201915b5050505050915050919050565b606061100a826114b9565b611049576040517f08c379a000000000000000000000000000000000000000000000000000000000815260040161104090613646565b60405180910390fd5b6000600660008481526020019081526020016000208054611069906139a5565b80601f0160208091040260200160405190810160405280929190818152602001828054611095906139a5565b80156110e25780601f106110b7576101008083540402835291602001916110e2565b820191906000526020600020905b8154815290600101906020018083116110c557829003601f168201915b5050505050905060006110f3611b5c565b905060008151141561110957819250505061114c565b60008251111561113e5780826040516020016111269291906131ac565b6040516020818303038152906040529250505061114c565b61114784611b73565b925050505b919050565b600061115d60076114ab565b9050606481106111a2576040517f08c379a000000000000000000000000000000000000000000000000000000000815260040161119990613506565b60405180910390fd5b60006111ad82610778565b905060006111ba83610d59565b905060006111c784610edd565b905060008383836040516020016111e0939291906131d0565b604051602081830303815290604052905060006111fc866108ba565b9050600061121560018861121091906137da565b6108ba565b90506000600883600984600a8860405160200161123796959493929190613201565b6040516020818303038152906040529050600061127c8561125784611c1a565b6040516020016112689291906132ec565b604051602081830303815290604052611c1a565b90506000816040516020016112919190613375565b60405160208183030381529060405290506112e06040518060400160405280601581526020017f0a2d2d2d2d2d2d2d2d2d2d2d2d2d2d2d2d2d2d2d2d0000000000000000000000815250611dd8565b6112e981611dd8565b6113276040518060400160405280601581526020017f2d2d2d2d2d2d2d2d2d2d2d2d2d2d2d2d2d2d2d2d0a0000000000000000000000815250611dd8565b611331338b611e71565b61133b8a82611e8f565b6113456007611f03565b611368604051806060016040528060258152602001613b85602591398b33611f19565b7febb98688741ffa4c7589bf325de30cf7becb63de567842e1ccdb6cb949fdc82c338b604051611399929190613442565b60405180910390a150505050505050505050565b6000600560008473ffffffffffffffffffffffffffffffffffffffff1673ffffffffffffffffffffffffffffffffffffffff16815260200190815260200160002060008373ffffffffffffffffffffffffffffffffffffffff1673ffffffffffffffffffffffffffffffffffffffff16815260200190815260200160002060009054906101000a900460ff16905092915050565b60007f01ffc9a7000000000000000000000000000000000000000000000000000000007bffffffffffffffffffffffffffffffffffffffffffffffffffffffff1916827bffffffffffffffffffffffffffffffffffffffffffffffffffffffff1916149050919050565b600081600001549050919050565b60008073ffffffffffffffffffffffffffffffffffffffff166002600084815260200190815260200160002060009054906101000a900473ffffffffffffffffffffffffffffffffffffffff1673ffffffffffffffffffffffffffffffffffffffff1614159050919050565b600033905090565b816004600083815260200190815260200160002060006101000a81548173ffffffffffffffffffffffffffffffffffffffff021916908373ffffffffffffffffffffffffffffffffffffffff160217905550808273ffffffffffffffffffffffffffffffffffffffff166115a0836109dc565b73ffffffffffffffffffffffffffffffffffffffff167f8c5be1e5ebec7d5bd14f71427d1e84f3dd0314c0f7b2291e5b200ac8c7c3b92560405160405180910390a45050565b60006115f1826114b9565b611630576040517f08c379a000000000000000000000000000000000000000000000000000000000815260040161162790613586565b60405180910390fd5b600061163b836109dc565b90508073ffffffffffffffffffffffffffffffffffffffff168473ffffffffffffffffffffffffffffffffffffffff1614806116aa57508373ffffffffffffffffffffffffffffffffffffffff166116928461057b565b73ffffffffffffffffffffffffffffffffffffffff16145b806116bb57506116ba81856113ad565b5b91505092915050565b8273ffffffffffffffffffffffffffffffffffffffff166116e4826109dc565b73ffffffffffffffffffffffffffffffffffffffff161461173a576040517f08c379a000000000000000000000000000000000000000000000000000000000815260040161173190613686565b60405180910390fd5b600073ffffffffffffffffffffffffffffffffffffffff168273ffffffffffffffffffffffffffffffffffffffff1614156117aa576040517f08c379a00000000000000000000000000000000000000000000000000000000081526004016117a190613546565b60405180910390fd5b6117b5838383611fb8565b6117c060008261152d565b6001600360008573ffffffffffffffffffffffffffffffffffffffff1673ffffffffffffffffffffffffffffffffffffffff168152602001908152602001600020600082825461181091906138bb565b925050819055506001600360008473ffffffffffffffffffffffffffffffffffffffff1673ffffffffffffffffffffffffffffffffffffffff168152602001908152602001600020600082825461186791906137da565b92505081905550816002600083815260200190815260200160002060006101000a81548173ffffffffffffffffffffffffffffffffffffffff021916908373ffffffffffffffffffffffffffffffffffffffff160217905550808273ffffffffffffffffffffffffffffffffffffffff168473ffffffffffffffffffffffffffffffffffffffff167fddf252ad1be2c89b69c2b068fc378daa952ba7f163c4a11628f55a4df523b3ef60405160405180910390a4505050565b60606000821415611968576040518060400160405280600181526020017f30000000000000000000000000000000000000000000000000000000000000008152509050611ac8565b600082905060005b6000821461199a578080611983906139d7565b915050600a826119939190613830565b9150611970565b60008167ffffffffffffffff8111156119dc577f4e487b7100000000000000000000000000000000000000000000000000000000600052604160045260246000fd5b6040519080825280601f01601f191660200182016040528015611a0e5781602001600182028036833780820191505090505b5090505b60008514611ac157600182611a2791906138bb565b9150600a85611a369190613a2a565b6030611a4291906137da565b60f81b818381518110611a7e577f4e487b7100000000000000000000000000000000000000000000000000000000600052603260045260246000fd5b60200101907effffffffffffffffffffffffffffffffffffffffffffffffffffffffffffff1916908160001a905350600a85611aba9190613830565b9450611a12565b8093505050505b919050565b600081604051602001611ae09190613195565b6040516020818303038152906040528051906020012060001c9050919050565b611b0b8484846116c4565b611b1784848484611fbd565b611b56576040517f08c379a0000000000000000000000000000000000000000000000000000000008152600401611b4d906134e6565b60405180910390fd5b50505050565b606060405180602001604052806000815250905090565b6060611b7e826114b9565b611bbd576040517f08c379a0000000000000000000000000000000000000000000000000000000008152600401611bb4906136a6565b60405180910390fd5b6000611bc7611b5c565b90506000815111611be75760405180602001604052806000815250611c12565b80611bf184611920565b604051602001611c029291906131ac565b6040516020818303038152906040525b915050919050565b60606000825190506000811415611c435760405180602001604052806000815250915050611dd3565b60006003600283611c5491906137da565b611c5e9190613830565b6004611c6a9190613861565b90506000602082611c7b91906137da565b67ffffffffffffffff811115611cba577f4e487b7100000000000000000000000000000000000000000000000000000000600052604160045260246000fd5b6040519080825280601f01601f191660200182016040528015611cec5781602001600182028036833780820191505090505b5090506000604051806060016040528060408152602001613baa604091399050600181016020830160005b86811015611d905760038101905062ffffff818a015116603f8160121c168401518060081b905060ff603f83600c1c1686015116810190508060081b905060ff603f8360061c1686015116810190508060081b905060ff603f831686015116810190508060e01b90508084526004840193505050611d17565b506003860660018114611daa5760028114611dba57611dc5565b613d3d60f01b6002830352611dc5565b603d60f81b60018303525b508484525050819450505050505b919050565b611e6e81604051602401611dec9190613486565b6040516020818303038152906040527f41304fac000000000000000000000000000000000000000000000000000000007bffffffffffffffffffffffffffffffffffffffffffffffffffffffff19166020820180517bffffffffffffffffffffffffffffffffffffffffffffffffffffffff8381831617835250505050612154565b50565b611e8b82826040518060200160405280600081525061217d565b5050565b611e98826114b9565b611ed7576040517f08c379a0000000000000000000000000000000000000000000000000000000008152600401611ece90613606565b60405180910390fd5b80600660008481526020019081526020016000209080519060200190611efe9291906123b9565b505050565b6001816000016000828254019250508190555050565b611fb3838383604051602401611f31939291906134a8565b6040516020818303038152906040527fe3849f79000000000000000000000000000000000000000000000000000000007bffffffffffffffffffffffffffffffffffffffffffffffffffffffff19166020820180517bffffffffffffffffffffffffffffffffffffffffffffffffffffffff8381831617835250505050612154565b505050565b505050565b6000611fde8473ffffffffffffffffffffffffffffffffffffffff166121d8565b15612147578373ffffffffffffffffffffffffffffffffffffffff1663150b7a02612007611525565b8786866040518563ffffffff1660e01b815260040161202994939291906133f6565b602060405180830381600087803b15801561204357600080fd5b505af192505050801561207457506040513d601f19601f8201168201806040525081019061207191906126fd565b60015b6120f7573d80600081146120a4576040519150601f19603f3d011682016040523d82523d6000602084013e6120a9565b606091505b506000815114156120ef576040517f08c379a00000000000000000000000000000000000000000000000000000000081526004016120e6906134e6565b60405180910390fd5b805181602001fd5b63150b7a0260e01b7bffffffffffffffffffffffffffffffffffffffffffffffffffffffff1916817bffffffffffffffffffffffffffffffffffffffffffffffffffffffff19161491505061214c565b600190505b949350505050565b60008151905060006a636f6e736f6c652e6c6f679050602083016000808483855afa5050505050565b61218783836121eb565b6121946000848484611fbd565b6121d3576040517f08c379a00000000000000000000000000000000000000000000000000000000081526004016121ca906134e6565b60405180910390fd5b505050565b600080823b905060008111915050919050565b600073ffffffffffffffffffffffffffffffffffffffff168273ffffffffffffffffffffffffffffffffffffffff16141561225b576040517f08c379a000000000000000000000000000000000000000000000000000000000815260040161225290613626565b60405180910390fd5b612264816114b9565b156122a4576040517f08c379a000000000000000000000000000000000000000000000000000000000815260040161229b90613526565b60405180910390fd5b6122b060008383611fb8565b6001600360008473ffffffffffffffffffffffffffffffffffffffff1673ffffffffffffffffffffffffffffffffffffffff168152602001908152602001600020600082825461230091906137da565b92505081905550816002600083815260200190815260200160002060006101000a81548173ffffffffffffffffffffffffffffffffffffffff021916908373ffffffffffffffffffffffffffffffffffffffff160217905550808273ffffffffffffffffffffffffffffffffffffffff16600073ffffffffffffffffffffffffffffffffffffffff167fddf252ad1be2c89b69c2b068fc378daa952ba7f163c4a11628f55a4df523b3ef60405160405180910390a45050565b8280546123c5906139a5565b90600052602060002090601f0160209004810192826123e7576000855561242e565b82601f1061240057805160ff191683800117855561242e565b8280016001018555821561242e579182015b8281111561242d578251825591602001919060010190612412565b5b50905061243b919061243f565b5090565b5b80821115612458576000816000905550600101612440565b5090565b600061246f61246a84613752565b613721565b90508281526020810184848401111561248757600080fd5b612492848285613963565b509392505050565b6000813590506124a981613b28565b92915050565b6000813590506124be81613b3f565b92915050565b6000813590506124d381613b56565b92915050565b6000815190506124e881613b56565b92915050565b600082601f8301126124ff57600080fd5b813561250f84826020860161245c565b91505092915050565b60008135905061252781613b6d565b92915050565b60006020828403121561253f57600080fd5b600061254d8482850161249a565b91505092915050565b6000806040838503121561256957600080fd5b60006125778582860161249a565b92505060206125888582860161249a565b9150509250929050565b6000806000606084860312156125a757600080fd5b60006125b58682870161249a565b93505060206125c68682870161249a565b92505060406125d786828701612518565b9150509250925092565b600080600080608085870312156125f757600080fd5b60006126058782880161249a565b94505060206126168782880161249a565b935050604061262787828801612518565b925050606085013567ffffffffffffffff81111561264457600080fd5b612650878288016124ee565b91505092959194509250565b6000806040838503121561266f57600080fd5b600061267d8582860161249a565b925050602061268e858286016124af565b9150509250929050565b600080604083850312156126ab57600080fd5b60006126b98582860161249a565b92505060206126ca85828601612518565b9150509250929050565b6000602082840312156126e657600080fd5b60006126f4848285016124c4565b91505092915050565b60006020828403121561270f57600080fd5b600061271d848285016124d9565b91505092915050565b60006020828403121561273857600080fd5b600061274684828501612518565b91505092915050565b612758816138ef565b82525050565b61276781613901565b82525050565b600061277882613797565b61278281856137ad565b9350612792818560208601613972565b61279b81613b17565b840191505092915050565b60006127b1826137a2565b6127bb81856137be565b93506127cb818560208601613972565b6127d481613b17565b840191505092915050565b60006127ea826137a2565b6127f481856137cf565b9350612804818560208601613972565b80840191505092915050565b6000815461281d816139a5565b61282781866137cf565b94506001821660008114612842576001811461285357612886565b60ff19831686528186019350612886565b61285c85613782565b60005b8381101561287e5781548189015260018201915060208101905061285f565b838801955050505b50505092915050565b600061289c6032836137be565b91507f4552433732313a207472616e7366657220746f206e6f6e20455243373231526560008301527f63656976657220696d706c656d656e74657200000000000000000000000000006020830152604082019050919050565b60006129026011836137be565b91507f6d617820737570706c79206f66203130300000000000000000000000000000006000830152602082019050919050565b6000612942607b836137cf565b91507f222c20226465736372697074696f6e223a20224120686967686c79206163636c60008301527f61696d656420636f6c6c656374696f6e206f6620626c6f636b636861696e206960208301527f6e667261737472756374757265207465726d732e222c2022696d616765223a2060408301527f22646174613a696d6167652f7376672b786d6c3b6261736536342c00000000006060830152607b82019050919050565b60006129f4601c836137be565b91507f4552433732313a20746f6b656e20616c7265616479206d696e746564000000006000830152602082019050919050565b6000612a34600a836137cf565b91507f54484952445f574f5244000000000000000000000000000000000000000000006000830152600a82019050919050565b6000612a746024836137be565b91507f4552433732313a207472616e7366657220746f20746865207a65726f2061646460008301527f72657373000000000000000000000000000000000000000000000000000000006020830152604082019050919050565b6000612ada6019836137be565b91507f4552433732313a20617070726f766520746f2063616c6c6572000000000000006000830152602082019050919050565b6000612b1a600b836137cf565b91507f5345434f4e445f574f52440000000000000000000000000000000000000000006000830152600b82019050919050565b6000612b5a602c836137be565b91507f4552433732313a206f70657261746f7220717565727920666f72206e6f6e657860008301527f697374656e7420746f6b656e00000000000000000000000000000000000000006020830152604082019050919050565b6000612bc0600d836137cf565b91507f3c2f746578743e3c2f7376673e000000000000000000000000000000000000006000830152600d82019050919050565b6000612c006038836137be565b91507f4552433732313a20617070726f76652063616c6c6572206973206e6f74206f7760008301527f6e6572206e6f7220617070726f76656420666f7220616c6c00000000000000006020830152604082019050919050565b6000612c66602a836137be565b91507f4552433732313a2062616c616e636520717565727920666f7220746865207a6560008301527f726f2061646472657373000000000000000000000000000000000000000000006020830152604082019050919050565b6000612ccc6029836137be565b91507f4552433732313a206f776e657220717565727920666f72206e6f6e657869737460008301527f656e7420746f6b656e00000000000000000000000000000000000000000000006020830152604082019050919050565b6000612d32602e836137be565b91507f45524337323155524953746f726167653a2055524920736574206f66206e6f6e60008301527f6578697374656e7420746f6b656e0000000000000000000000000000000000006020830152604082019050919050565b6000612d986002836137cf565b91507f227d0000000000000000000000000000000000000000000000000000000000006000830152600282019050919050565b6000612dd86020836137be565b91507f4552433732313a206d696e7420746f20746865207a65726f20616464726573736000830152602082019050919050565b6000612e186031836137be565b91507f45524337323155524953746f726167653a2055524920717565727920666f722060008301527f6e6f6e6578697374656e7420746f6b656e0000000000000000000000000000006020830152604082019050919050565b6000612e7e602c836137be565b91507f4552433732313a20617070726f76656420717565727920666f72206e6f6e657860008301527f697374656e7420746f6b656e00000000000000000000000000000000000000006020830152604082019050919050565b6000612ee46029836137be565b91507f4552433732313a207472616e73666572206f6620746f6b656e2074686174206960008301527f73206e6f74206f776e00000000000000000000000000000000000000000000006020830152604082019050919050565b6000612f4a602f836137be565b91507f4552433732314d657461646174613a2055524920717565727920666f72206e6f60008301527f6e6578697374656e7420746f6b656e00000000000000000000000000000000006020830152604082019050919050565b6000612fb0600a836137cf565b91507f7b226e616d65223a2022000000000000000000000000000000000000000000006000830152600a82019050919050565b6000612ff06021836137be565b91507f4552433732313a20617070726f76616c20746f2063757272656e74206f776e6560008301527f72000000000000000000000000000000000000000000000000000000000000006020830152604082019050919050565b6000613056600a836137cf565b91507f46495253545f574f5244000000000000000000000000000000000000000000006000830152600a82019050919050565b6000613096601d836137cf565b91507f646174613a6170706c69636174696f6e2f6a736f6e3b6261736536342c0000006000830152601d82019050919050565b60006130d66031836137be565b91507f4552433732313a207472616e736665722063616c6c6572206973206e6f74206f60008301527f776e6572206e6f7220617070726f7665640000000000000000000000000000006020830152604082019050919050565b600061313c6005836137cf565b91507f434f4c4f520000000000000000000000000000000000000000000000000000006000830152600582019050919050565b61317881613959565b82525050565b61318f61318a82613959565b613a20565b82525050565b60006131a182846127df565b915081905092915050565b60006131b882856127df565b91506131c482846127df565b91508190509392505050565b60006131dc82866127df565b91506131e882856127df565b91506131f482846127df565b9150819050949350505050565b600061320d8289612810565b915061321982886127df565b91506132258287612810565b915061323182866127df565b915061323d8285612810565b915061324982846127df565b915061325482612bb3565b9150819050979650505050505050565b600061326f82612a27565b915061327b828661317e565b60208201915061328b828561317e565b60208201915061329b82846127df565b9150819050949350505050565b60006132b382612b0d565b91506132bf828661317e565b6020820191506132cf828561317e565b6020820191506132df82846127df565b9150819050949350505050565b60006132f782612fa3565b915061330382856127df565b915061330e82612935565b915061331a82846127df565b915061332582612d8b565b91508190509392505050565b600061333c82613049565b9150613348828661317e565b602082019150613358828561317e565b60208201915061336882846127df565b9150819050949350505050565b600061338082613089565b915061338c82846127df565b915081905092915050565b60006133a28261312f565b91506133ae828661317e565b6020820191506133be828561317e565b6020820191506133ce82846127df565b9150819050949350505050565b60006020820190506133f0600083018461274f565b92915050565b600060808201905061340b600083018761274f565b613418602083018661274f565b613425604083018561316f565b8181036060830152613437818461276d565b905095945050505050565b6000604082019050613457600083018561274f565b613464602083018461316f565b9392505050565b6000602082019050613480600083018461275e565b92915050565b600060208201905081810360008301526134a081846127a6565b905092915050565b600060608201905081810360008301526134c281866127a6565b90506134d1602083018561316f565b6134de604083018461274f565b949350505050565b600060208201905081810360008301526134ff8161288f565b9050919050565b6000602082019050818103600083015261351f816128f5565b9050919050565b6000602082019050818103600083015261353f816129e7565b9050919050565b6000602082019050818103600083015261355f81612a67565b9050919050565b6000602082019050818103600083015261357f81612acd565b9050919050565b6000602082019050818103600083015261359f81612b4d565b9050919050565b600060208201905081810360008301526135bf81612bf3565b9050919050565b600060208201905081810360008301526135df81612c59565b9050919050565b600060208201905081810360008301526135ff81612cbf565b9050919050565b6000602082019050818103600083015261361f81612d25565b9050919050565b6000602082019050818103600083015261363f81612dcb565b9050919050565b6000602082019050818103600083015261365f81612e0b565b9050919050565b6000602082019050818103600083015261367f81612e71565b9050919050565b6000602082019050818103600083015261369f81612ed7565b9050919050565b600060208201905081810360008301526136bf81612f3d565b9050919050565b600060208201905081810360008301526136df81612fe3565b9050919050565b600060208201905081810360008301526136ff816130c9565b9050919050565b600060208201905061371b600083018461316f565b92915050565b6000604051905081810181811067ffffffffffffffff8211171561374857613747613ae8565b5b8060405250919050565b600067ffffffffffffffff82111561376d5761376c613ae8565b5b601f19601f8301169050602081019050919050565b60008190508160005260206000209050919050565b600081519050919050565b600081519050919050565b600082825260208201905092915050565b600082825260208201905092915050565b600081905092915050565b60006137e582613959565b91506137f083613959565b9250827fffffffffffffffffffffffffffffffffffffffffffffffffffffffffffffffff0382111561382557613824613a5b565b5b828201905092915050565b600061383b82613959565b915061384683613959565b92508261385657613855613a8a565b5b828204905092915050565b600061386c82613959565b915061387783613959565b9250817fffffffffffffffffffffffffffffffffffffffffffffffffffffffffffffffff04831182151516156138b0576138af613a5b565b5b828202905092915050565b60006138c682613959565b91506138d183613959565b9250828210156138e4576138e3613a5b565b5b828203905092915050565b60006138fa82613939565b9050919050565b60008115159050919050565b60007fffffffff0000000000000000000000000000000000000000000000000000000082169050919050565b600073ffffffffffffffffffffffffffffffffffffffff82169050919050565b6000819050919050565b82818337600083830152505050565b60005b83811015613990578082015181840152602081019050613975565b8381111561399f576000848401525b50505050565b600060028204905060018216806139bd57607f821691505b602082108114156139d1576139d0613ab9565b5b50919050565b60006139e282613959565b91507fffffffffffffffffffffffffffffffffffffffffffffffffffffffffffffffff821415613a1557613a14613a5b565b5b600182019050919050565b6000819050919050565b6000613a3582613959565b9150613a4083613959565b925082613a5057613a4f613a8a565b5b828206905092915050565b7f4e487b7100000000000000000000000000000000000000000000000000000000600052601160045260246000fd5b7f4e487b7100000000000000000000000000000000000000000000000000000000600052601260045260246000fd5b7f4e487b7100000000000000000000000000000000000000000000000000000000600052602260045260246000fd5b7f4e487b7100000000000000000000000000000000000000000000000000000000600052604160045260246000fd5b6000601f19601f8301169050919050565b613b31816138ef565b8114613b3c57600080fd5b50565b613b4881613901565b8114613b5357600080fd5b50565b613b5f8161390d565b8114613b6a57600080fd5b50565b613b7681613959565b8114613b8157600080fd5b5056fe416e204e465420772f20494420257320686173206265656e206d696e74656420746f2025734142434445464748494a4b4c4d4e4f505152535455565758595a6162636465666768696a6b6c6d6e6f707172737475767778797a303132333435363738392b2fa26469706673582212207304682e275e96707e2a909bed1a9c01b0fd885b2d198f7ad61be56f79e0ed4264736f6c63430008000033272f3e3c2f72616469616c4772616469656e743e3c2f646566733e3c7374796c653e2e62617365207b2066696c6c3a2077686974653b20666f6e742d66616d696c793a2073657269663b20666f6e742d73697a653a20323470783b207d3c2f7374796c653e3c726563742077696474683d273130302527206865696768743d2731303025272066696c6c3d2775726c282352616469616c4772616469656e7429272f3e3c7465787420783d273530252720793d273530252720636c6173733d27626173652720646f6d696e616e742d626173656c696e653d276d6964646c652720746578742d616e63686f723d276d6964646c65273e272f3e3c73746f70206f66667365743d2731303025272073746f702d636f6c6f723d273c73766720786d6c6e733d27687474703a2f2f7777772e77332e6f72672f323030302f73766727207072657365727665417370656374526174696f3d27784d696e594d696e206d656574272076696577426f783d273020302033353020333530273e3c646566733e3c72616469616c4772616469656e742069643d2752616469616c4772616469656e74273e3c73746f70206f66667365743d273025272073746f702d636f6c6f723d27",
  "linkReferences": {},
  "deployedLinkReferences": {}
}